:100000000C945E000C9486000C9486000C94860080
:100010000C9486000C9486000C9486000C948A0242
:100020000C9486000C9486000C9486000C94860038
:100030000C9486000C9486000C9486000C94860028
:100040000C94B4070C9486000C9432030C940C03AB
:100050000C9486000C9486000C9486000C94860008
:100060000C9464030C948600000000080002010058
:100070000003040700000000000000000200000070
:1000800000250028002B0000000000240027002A83
:100090000004040404040404040202020202020331
:1000A000030303030301020408102040800102043B
:1000B00008102001020408102000520D11241FBE58
:1000C000CFEFD8E0DEBFCDBF11E0A0E0B1E0E8E3C4
:1000D000F0E202C005900D92A034B107D9F722E0FA
:1000E000A0E4B1E001C01D92A03DB207E1F710E02D
:1000F000CEE5D0E004C02197FE010E940F10CD355F
:10010000D107C9F70E94FE070C941A100C94000046
:10011000CF92DF92EF92FF920F931F93CF93DF93D3
:100120006C017A018B01C0E0D0E0CE15DF0589F0CB
:10013000D8016D918D01D601ED91FC910190F08176
:10014000E02DC6010995892B11F47E0102C021968C
:10015000ECCFC701DF91CF911F910F91FF90EF90EE
:10016000DF90CF900895FC01918D828D981761F0FA
:10017000828DDF01A80FB11D5D968C91928D9F5FDE
:100180009F73928F90E008958FEF9FEF0895FC0189
:10019000918D828D981731F0828DE80FF11D858D3C
:1001A00090E008958FEF9FEF0895FC01918D228DCF
:1001B000892F90E0805C9F4F821B91098F73992754
:1001C00008958DE192E00E94D50021E0892B09F489
:1001D00020E0822F0895FC01848DDF01A80FB11D5E
:1001E000A35ABF4F2C91848D90E001968F7399276D
:1001F000848FA689B7892C93A089B1898C9180645A
:100200008C93938D848D981306C00288F389E02D1A
:1002100080818F7D80830895EF92FF920F931F93CB
:10022000CF93DF93EC0181E0888F9B8D8C8D9813A9
:1002300005C0E889F989808185FD24C0F62E0B8DE3
:1002400010E00F5F1F4F0F731127E02E8C8DE81207
:100250000CC00FB607FCFACFE889F989808185FFC9
:10026000F5CFCE010E94EB00F1CF8B8DFE01E80FA0
:10027000F11DE35AFF4FF0820B8FEA89FB898081E1
:10028000806207C0EE89FF896083E889F9898081EF
:100290008064808381E090E0DF91CF911F910F9186
:1002A000FF90EF900895CF93DF93EC01888D882322
:1002B000C9F0EA89FB89808185FD05C0A889B989D3
:1002C0008C9186FD0FC00FB607FCF5CF808185FFAE
:1002D000F2CFA889B9898C9185FFEDCFCE010E941C
:1002E000EB00E7CFDF91CF91089580E090E0892B7C
:1002F00029F00E94E10081110C940000089590E023
:10030000FC01E859FF4F3491FC01EB55FF4F24915C
:10031000FC01EF56FF4FE491EE2309F43BC0332379
:1003200039F1333091F038F43130A9F0323001F541
:1003300084B58F7D12C0373091F03830A1F0343061
:10034000B9F4809180008F7D03C0809180008F7709
:10035000809380000DC084B58F7784BD09C08091E3
:10036000B0008F7703C08091B0008F7D8093B00084
:10037000F0E0EE0FFF1FE358FF4FA591B4918FB748
:10038000F894EC91611103C020952E2301C02E2B0F
:100390002C938FBF089585ED8093BC008091BC00A5
:1003A00084FDFCCF1092F901089540916201262F3F
:1003B00030E0240F311D21323105DCF42091F901A8
:1003C0002430C9F4FC0180E090E0861758F43091A5
:1003D00062012191DC01A05CBE4FA30FB11D2C93E3
:1003E0000196F3CF80916201680F6093620180E013
:1003F000089581E0089582E008950895E091B201A2
:100400008091B101E81730F4F0E0ED54FE4F8081A7
:1004100090E008958FEF9FEF08959091B201809141
:10042000B101981750F4E92FF0E0ED54FE4F208110
:1004300030E09F5F9093B20102C02FEF3FEFC90100
:1004400008958091B10190E02091B201821B910941
:100450000895CF92DF92EF92FF920F931F93CF9365
:10046000DF937C01262F972F8A018091FA01882340
:1004700091F0C62FD72F6E01C40ED51ECC15DD0509
:1004800071F06991D701ED91FC910190F081E02D1F
:10049000C7010995F3CF642F822F0E94D501C801AF
:1004A000DF91CF911F910F91FF90EF90DF90CF9050
:1004B0000895CF93DF931F92CDB7DEB76983209164
:1004C000FA012223D1F020911C02203240F021E0D9
:1004D00030E0FC013383228380E090E015C08091FE
:1004E000FB01E82FF0E0E450FE4F998190838F5F8D
:1004F0008093FB0180931C0205C061E0CE01019650
:100500000E94D50181E090E00F90DF91CF91089596
:100510000E9415101F920F920FB60F9211242F9365
:100520003F934F935F936F937F938F939F93AF937B
:10053000BF93EF93FF938091900190919101A091CF
:100540009201B0919301892B8A2B8B2B59F18091C9
:100550008701E0918801F09189019081892780834A
:100560008091900190919101A0919201B09193019D
:10057000181619061A061B060CF03DC08091900152
:1005800090919101A0919201B09193010197A109DD
:10059000B1098093900190939101A0939201B0933F
:1005A000930129C080910001ECE7F0E0E4919FEF16
:1005B00090930001E130B9F098F0E230C9F49091E5
:1005C00070009D7F9093700091E09093B0009091A7
:1005D000B100987F94609093B1001092B30008C06E
:1005E00010926E0005C090916F009D7F90936F00F8
:1005F00060E00E947F01FF91EF91BF91AF919F91C9
:100600008F917F916F915F914F913F912F910F90BB
:100610000FBE0F901F9018951F920F920FB60F925A
:1006200011242F933F934F935F936F937F938F93F7
:100630009F93AF93BF93EF93FF938DE192E00E945E
:10064000EB00FF91EF91BF91AF919F918F917F91BF
:100650006F915F914F913F912F910F900FBE0F902F
:100660001F9018951F920F920FB60F9211242F937F
:100670008F939F93EF93FF93E0912D02F0912E02C1
:100680008081E0913302F091340282FD12C09081AA
:10069000809136028F5F8F7320913702821751F05D
:1006A000E0913602F0E0E35EFD4F958F80933602D5
:1006B00001C08081FF91EF919F918F912F910F90B9
:1006C0000FBE0F901F9018951F920F920FB60F92AA
:1006D00011242F933F934F935F936F937F938F9347
:1006E0009F93AF93BF93EF93FF938091B900887F5F
:1006F000803609F49CC068F5883209F45BC090F438
:10070000803109F454C038F4882309F4F6C08830E5
:1007100009F44DC0F6C0883109F44CC0803209F4A8
:100720005DC0EFC0803409F468C048F4803309F438
:1007300055C0883309F0E5C08093F701D8C08035F3
:1007400009F44FC0883509F45DC0883409F0D9C078
:10075000D6C0883909F4C7C0A8F4883709F467C03F
:1007600038F4883609F463C0803709F460C0C9C022
:10077000883809F4B8C0803909F45FC0803809F0BE
:10078000C0C05BC0803B09F486C038F4803A09F4ED
:1007900066C0883A09F47FC0B4C0803C09F4A7C0A1
:1007A000883C09F4A4C0883B09F48AC0AAC080919F
:1007B000D40110C09091F6018091F501981770F561
:1007C000E091F60181E08E0F8093F601F0E0EB52AC
:1007D000FE4F80818093BB0085EC86C08093F7013B
:1007E0008EC0E091F60181E08E0F8093F60180913A
:1007F000BB00F0E0EB52FE4F80839091F6018091B8
:10080000F5016EC0E091F60181E08E0F8093F60154
:100810008091BB00F0E0EB52FE4F80838091F801A5
:1008200081116DC081E08093D30184EA61C083E0CF
:100830008093F90110928601CFCF8091860180329A
:1008400008F051C0E091860181E08E0F809386010F
:100850008091BB00F0E0EA59FE4F8083BDCF85EC6C
:100860008093BC001092F90180918601803230F4AF
:10087000E0918601F0E0EA59FE4F10826091860116
:1008800070E0E0916401F091650186E691E00995E0
:100890001092860136C084E08093F90110926301C2
:1008A00010926201E0916001F091610109958091DF
:1008B0006201811105C081E08093620110924001C4
:1008C000E091630181E08E0F80936301F0E0E05CD2
:1008D000FE4F80818093BB00909163018091620103
:1008E000981708F479CF85E88093BC000AC085EC9E
:1008F0008093BC001092F90104C01092F7010E948D
:10090000CB01FF91EF91BF91AF919F918F917F911B
:100910006F915F914F913F912F910F900FBE0F906C
:100920001F9018958091F9018111FCCF81E080938F
:10093000F9018093F8019FEF9093F7011092F6016F
:1009400093E09093F5018093D4018091D401806B62
:100950008093D4018091D301813061F41092D3014E
:100960008091D4018093BB008091BC0083FDF8CFBF
:1009700085EC01C085EE8093BC008091F901813047
:10098000E1F38091F601843018F48091F60101C002
:1009900084E0A5EDB1E023EB31E0F9019E2F921B3D
:1009A000981718F49D919193F9CF1092B20180930A
:1009B000B101089590E0FC01EB55FF4F2491FC013B
:1009C000EF56FF4F8491882399F090E0880F991F8C
:1009D000FC01E957FF4FA591B491FC01E358FF4F8B
:1009E000859194918FB7F894EC91E22BEC938FBFA3
:1009F000089520911C029091CF02213208F04AC044
:100A00008091F9018111FCCF32E03093F90131E09E
:100A10003093F8013FEF3093F7011092F6012093E5
:100A2000F501ACEFB1E045ED51E0FA013E2F341B8A
:100A3000321718F43D913193F9CF1092D4012091DF
:100A4000D401990F922B9093D4019091D3019130BE
:100A500061F41092D3019091D4019093BB009091D6
:100A6000BC0093FDF8CF95EC01C095EE9093BC00CF
:100A70009091F9019230E1F39091F7019F3F79F065
:100A80008091F701803241F08091F701803331F09D
:100A900084E005C081E003C082E001C083E01092E1
:100AA000FB0110921C021092FA010895682F8AEB44
:100AB00092E00C94590291E09093FA018093CF0256
:100AC0001092FB0110921C020895009769F0FC013E
:100AD00001900020E9F73197AF01481B590BBC0189
:100AE0008DE192E00C94880080E090E00895E09120
:100AF0001D02F0911E020190F081E02D682F8DE122
:100B000092E009948F929F92AF92BF920F931F939E
:100B1000CF93DF93CDB7DEB7A1970FB6F894DEBFC2
:100B20000FBECDBF19A2423008F44AE08E010F5D1E
:100B30001F4F842E912CA12CB12CA50194010E9451
:100B4000CE0FE62FB901CA0101501109EA3014F4A1
:100B5000E05D01C0E95CD801EC93232B242B252B0D
:100B600061F7C8010E946505A1960FB6F894DEBF33
:100B70000FBECDBFDF91CF911F910F91BF90AF906E
:100B80009F908F9008954F925F926F927F928F9275
:100B90009F92AF92BF92CF92DF92EF92FF926B0142
:100BA0007C01B42E9B01AC010E94C90F882319F06F
:100BB00084E391E027C026013701E89477F82FEF0E
:100BC0003FEF4FE75FE7C301B2010E94C90F8111F8
:100BD0000DC02FEF3FEF4FE75FE7C301B2010E9467
:100BE000F80D18161CF488E391E00CC02FEF3FEFCE
:100BF0004FE75FE4C701B6010E94570F181684F44F
:100C00008CE391E0FF90EF90DF90CF90BF90AF909A
:100C10009F908F907F906F905F904F900C946505A0
:100C20002FEF3FEF4FE75FECC701B6010E94F80DD1
:100C300087FDE6CF20E030E0A901C701B6010E94A0
:100C4000F80D87FF09C08DE20E9477054C01F7FA85
:100C5000F094F7F8F09402C0812C912CA12C60E064
:100C600070E080E09FE3AB1441F020E030E040E230
:100C700051E40E94FD0DA394F6CF9B01AC01C70186
:100C8000B6010E948C0D2B013C010E94760E6B0177
:100C90007C010E94A50E9B01AC01C301B2010E9420
:100CA0008B0D2B013C014AE0C701B6010E94820571
:100CB0007C01E80CF91CBB2029F08EE20E9477052C
:100CC000E80EF91EDB2CDD2021F120E030E040E2CF
:100CD00051E4C301B2010E945C0F2B013C010E9450
:100CE000760E4B01A12CB12C4AE0C501B4010E9443
:100CF0008205E80EF91EC501B4010E94A50E9B01F4
:100D0000AC01C301B2010E948B0D2B013C01DA94AE
:100D1000DACFC701FF90EF90DF90CF90BF90AF90F8
:100D20009F908F907F906F905F904F9008950C945C
:100D300065051092A5011092A6011092A7011092CC
:100D4000A8011092A9011092AA011092AB01109271
:100D5000AC0188E50E945B0582E090E00E945605A8
:100D60000E94F9040E9492048091B10190E02091C8
:100D7000B201821B910984309105ECF38AEB92E079
:100D80000E940D02092E000CAA0BBB0BBA2FA92F33
:100D9000982F88278093A5019093A601A093A7017F
:100DA000B093A8018AEB92E00E940D02092E000C7C
:100DB000AA0BBB0B4091A5015091A6016091A70120
:100DC0007091A801840F951FA61FB71FBA2FA92FD6
:100DD000982F88278093A5019093A601A093A7013F
:100DE000B093A8018AEB92E00E940D02092E000C3C
:100DF000AA0BBB0B4091A5015091A6016091A701E0
:100E00007091A801840F951FA61FB71FBA2FA92F95
:100E1000982F88278093A5019093A601A093A701FE
:100E2000B093A8018AEB92E00E940D02092E000CFB
:100E3000AA0BBB0B4091A5015091A6016091A7019F
:100E40007091A801840F951FA61FB71F8093A5015D
:100E50009093A601A093A701B093A80188E50E94F2
:100E60005B0586E090E00E9456050E94F9040E940E
:100E700092048091B10190E02091B201821B91090E
:100E800084309105ECF38AEB92E00E940D02092E6A
:100E9000000CAA0BBB0BBA2FA92F982F8827809381
:100EA000A9019093AA01A093AB01B093AC018AEB86
:100EB00092E00E940D02092E000CAA0BBB0B409180
:100EC000A9015091AA016091AB017091AC01840F0E
:100ED000951FA61FB71FBA2FA92F982F8827809379
:100EE000A9019093AA01A093AB01B093AC018AEB46
:100EF00092E00E940D02092E000CAA0BBB0B409140
:100F0000A9015091AA016091AB017091AC01840FCD
:100F1000951FA61FB71FBA2FA92F982F8827809338
:100F2000A9019093AA01A093AB01B093AC018AEB05
:100F300092E00E940D02092E000CAA0BBB0B4091FF
:100F4000A9015091AA016091AB017091AC01840F8D
:100F5000951FA61FB71F8093A9019093AA01A09384
:100F6000AB01B093AC0108951F920F920FB60F9290
:100F700011242F933F938F939F93AF93BF938091AF
:100F8000CB029091CC02A091CD02B091CE023091D3
:100F9000CA0223E0230F2D3720F40196A11DB11DB5
:100FA00005C026E8230F0296A11DB11D2093CA0299
:100FB0008093CB029093CC02A093CD02B093CE024B
:100FC0008091C6029091C702A091C802B091C90257
:100FD0000196A11DB11D8093C6029093C702A093F4
:100FE000C802B093C902BF91AF919F918F913F9179
:100FF0002F910F900FBE0F901F901895CF93DF93F6
:10100000CDB7DEB72E970FB6F894DEBF0FBECDBFBB
:10101000789484B5826084BD84B5816084BD85B5D3
:10102000826085BD85B5816085BD80916E008160DF
:1010300080936E0010928100809181008260809385
:101040008100809181008160809381008091800087
:101050008160809380008091B10084608093B100B2
:101060008091B00081608093B00080917A008460AC
:1010700080937A0080917A00826080937A008091D8
:101080007A00816080937A0080917A0080688093F2
:101090007A001092C100E0912D02F0912E0282E0C0
:1010A0008083E0912902F0912A021082E0912B02C4
:1010B000F0912C028FEC808310923502E091310286
:1010C000F091320286E08083E0912F02F0913002AD
:1010D000808180618083E0912F02F09130028081D5
:1010E00088608083E0912F02F091300280818068D7
:1010F0008083E0912F02F091300280818F7D808388
:101100001092B2011092B1011092FB0110921C02D8
:101110001092F90181E08093F8011092D30161E00F
:1011200082E10E947F0161E083E10E947F01809162
:10113000B9008E7F8093B9008091B9008D7F809334
:10114000B90088E48093B80085E48093BC0084E013
:101150000E94DA0485E00E94DA0486E00E94DA0444
:1011600080910001853021F08F3F09F0BAC004C0A2
:10117000ECE7F0E0149174C085E080930001ECE7A7
:10118000F0E0E491EF3F09F4ACC0E13011F1E2305E
:1011900009F442C0E11163C014BC15BC84B582607F
:1011A00084BD85B5816085BDE6E9F0E0E491F0E0BD
:1011B000EE0FFF1FE358FF4F8591949190938F019D
:1011C00080938E01EAEAF0E0E491E0938D0110E073
:1011D00049C0109280001092810080918100886047
:1011E0008093810080918100816080938100E6E995
:1011F000F0E0E491F0E0EE0FFF1FE358FF4F859120
:10120000949190938C0180938B01EAEAF0E0E49151
:10121000E0938A0111E026C01092B0001092B10054
:101220008091B00082608093B0008091B1008160B5
:101230008093B100E6E9F0E0E491F0E0EE0FFF1FEB
:10124000E358FF4F85919491909389018093880191
:10125000EAEAF0E0E491E093870112E003C01E2F78
:1012600017FD3FC085E00E94DA04112309F4FBC397
:10127000123009F410C41130F1F480918100887F9C
:1012800083608093810083EC99E090938900809340
:10129000880084E690E0A0E0B0E080939401909311
:1012A0009501A0939601B093970180916F008260A1
:1012B00080936F0016C083EC123099F48093B300D2
:1012C00084E690E0A0E0B0E08093900190939101DB
:1012D000A0939201B09393018091700082608093FB
:1012E000700081E291E00E94970688E50E945B050C
:1012F0008FE090E00E94560581E090E00E94560544
:101300000E94F90488E50E945B0580E190E00E945C
:10131000560580E290E00E9456050E94F904109262
:10132000A4011092A0011092A1011092A2011092AA
:10133000A301212C312C1D821E821F821886198642
:101340001A861B861C868091A401811166C20E94A8
:1013500099064091A5015091A6016091A701709155
:10136000A8018091A9019091AA01A091AB01B0912F
:10137000AC018A019B01080F191F2A1F3B1FC901DD
:10138000B80122E030E040E050E00E94F00FCA01D6
:10139000B9010E94A70E6B017C019B01AC0160E0CA
:1013A00070E48DE894E40E948B0D062F7D878E8774
:1013B000192F20E030E044E353E4C701B6010E9456
:1013C000F80D87FF11C02AE939E949E15FE3C70158
:1013D000B6010E945C0F20E030E048EC51E40E942E
:1013E0008C0D2B013C0156C020E030E04FE254E46C
:1013F000602F7D858E85912F0E94570F18160CF453
:1014000063C027ED33EA40EF5EE3602F7D858E8574
:10141000912F0E945C0F6B017C0129853A854B85D9
:101420005C85602F7D858E85912F0E948B0D2DEC24
:101430003CEC4CE45FE30E945C0F9B01AC01C701F4
:10144000B6010E948C0D6B017C0120E030E0A90107
:101450006D817E818F8198850E945C0F9B01AC011C
:10146000C701B6010E948C0D2B013C01202F3D8548
:101470004E85512F6D817E818F8198850E948C0DC4
:101480006D837E838F83988709872D852A873E8584
:101490003B871C8720E030E04EEF52E4C301B201ED
:1014A0000E94570F181684F020E030E040E053EC23
:1014B000C301B2010E94F80D87FF0CC0412C512CD2
:1014C000612CF3EC7F2E06C0412C512CEEEF6E2EDA
:1014D000E2E47E2E88E50E945B058FE090E00E94AA
:1014E000560581E090E00E9456050E94F904609143
:1014F000A9017091AA018091AB019091AC010E9469
:10150000A70E20E030E040EA53E40E945C0F20E0A8
:1015100030E04AE754E40E94FD0D6B017C016091CC
:10152000A5017091A6018091A7019091A8010E9448
:10153000A70E20E030E84EE953E40E945C0F20E063
:1015400030E04AE754E40E94FD0D9B01AC01C70165
:10155000B6010E948B0D6B017C0189E291E00E9433
:10156000970642E0C701B6010E94C30589E291E0F7
:101570000E9497068091A0019091A101A091A201E3
:10158000B091A30189839A83AB83BC832AE939E9AB
:1015900049E15FE3C701B6010E945C0F4B015C01AA
:1015A00020919C0130919D0140919E0150919F019D
:1015B000C701B6010E948B0D2DEC3CEC4CE45EE3C0
:1015C0000E945C0F9B01AC01C501B4010E948C0D0F
:1015D0004B015C0120E030E0A90169817A818B81B7
:1015E0009C810E945C0F9B01AC01C501B4010E946B
:1015F0008C0D4B015C01C0929C01D0929D01E09248
:101600009E01F0929F01A701960169817A818B81E9
:101610009C810E948C0D6093A0017093A101809326
:10162000A2019093A301A5019401C301B2010E94FC
:101630008C0D6B017C01A5019401C301B2010E94D4
:101640008B0D4B015C0120E030E04EEF52E4C7010E
:10165000B6010E94570F20E030E04EEF52E418161A
:101660000CF4F3C1C501B4010E94570F20E030E033
:1016700040E053EC1816DCF0C701B6010E94F80DEB
:1016800087FF05C0C12CD12CE12C73ECF72E20E094
:1016900030E040E053ECC501B4010E94F80D87FF33
:1016A00017C0812C912CA12C63ECB62E11C0C70160
:1016B000B6010E94F80D87FF05C0C12CD12CE12C8A
:1016C00053ECF52E812C912C4EEFA42E42E4B42E37
:1016D00089E291E00E94970642E0C301B2010E94B4
:1016E000C30589E291E00E94970689E291E00E9499
:1016F000970642E0C701B6010E94C30589E291E066
:101700000E94970689E291E00E94970642E0C50197
:10171000B4010E94C30589E291E00E9497068DE220
:1017200091E00E94970688E50E945B0580E090E0CA
:101730000E94560520E030E040E05FE3C701B601BB
:101740000E948C0D0E946F0ECB010E9456050E94D4
:10175000F90488E50E945B0581E090E00E9456054F
:1017600020E030E040E05FE3C501B4010E948C0D51
:101770000E946F0ECB010E9456050E94F90420E0E2
:1017800030E040EA50E4602F7D858E85912F0E94E5
:10179000F80D87FF0FC020E030E040EA50EC602FEA
:1017A0007D858E85912F0E94570F18161CF49FEF90
:1017B000291A390A20E030E040EA51E4602F7D85A3
:1017C0008E85912F0E94570F181664F420E030E0A8
:1017D00040EA51EC602F7D858E85912F0E94F80D97
:1017E00087FD08C0A5E02A16310431F4B1E0B093BA
:1017F000A40102C0212C312C89E291E00E949706BD
:101800004AE0B101032C000C880B990B0E94820561
:1018100089E291E00E94970696CD88E50E945B05DB
:1018200080E090E00E94560580E090E00E9456051E
:101830000E94F90488E50E945B0581E090E00E9427
:10184000560580E090E00E9456050E94F90488E564
:101850000E945B058FE090E00E94560581E090E0D9
:101860000E9456050E94F90488E50E945B0580E10C
:1018700090E00E94560580E290E00E9456050E948A
:10188000F9041092A401E12CF12CD12CC12CB12C23
:10189000A12C8091A4018111D5C00E94990660916C
:1018A000A9017091AA018091AB019091AC010E94B5
:1018B000A70E9B01AC016EEA70EE8EEF93E40E94DE
:1018C0008B0D8B011C012DE33AE047ED5EE30E9496
:1018D0005C0F2B013C012D2D3C2D4B2D5A2DB801B9
:1018E000C1010E948B0D2DEC3CEC4CEC5EE30E94A0
:1018F0005C0F9B01AC01C301B2010E948C0D20E082
:1019000030E040E05FE30E948C0D4B015C0120E081
:1019100030E04EEF52E40E94570F181684F020E09A
:1019200030E040E053ECC501B4010E94F80D87FFA0
:101930000CC0812C912CA12C33ECB32E06C0812C31
:10194000912C2EEFA22E22E4B22E42E0C501B4016A
:101950000E94C30589E291E00E94970642E0B80127
:10196000C1010E94C30589E291E00E94650581E3FF
:1019700091E00E94650588E50E945B0581E090E0AA
:101980000E94560520E030E040E05FE3C501B4016D
:101990000E948C0D0E946F0ECB010E9456050E9482
:1019A000F90488E50E945B0580E090E00E945605FE
:1019B000C501B401905820E030E040E05FE30E94B0
:1019C0008B0D0E946F0ECB010E9456050E94F904F8
:1019D00020E030E040EA50E4B801C1010E94F80D77
:1019E00087FF0DC020E030E040EA50ECB801C101B3
:1019F0000E94570F18161CF4EFEFEE1AFE0A20E0B3
:101A000030E040EA51E4B801C1010E94570F1816B6
:101A100054F420E030E040EA51ECB801C1010E94EA
:101A2000F80D87FD08C0F5E0EF16F10431F421E070
:101A30002093A40102C0E12CF12CD02EC12EB22C97
:101A4000A32C27CF0E9475014CCCC501B4010E9484
:101A5000570FC12CD12C9EEFE92E92E4F92E1816C7
:101A60000CF430CE14CE85B5887F856085BD8BE9BA
:101A700087BD84E690E0A0E0B0E080939801909369
:101A80009901A0939A01B0939B0180916E008260AE
:101A900080936E0026CC8091B10087608093B10066
:101AA0008BE90CCCEDE1F2E01382128288EE93E038
:101AB000A0E0B0E084839583A683B78325E031E07E
:101AC0003183208325EC30E03587248724EC30E017
:101AD0003787268720EC30E0318B208B21EC30E0FB
:101AE000338B228B22EC30E0358B248B26EC30E0DC
:101AF000378B268B118E128E138E148EEAEBF2E04A
:101B00001382128284839583A683B78385E191E053
:101B10009183808308955058BB27AA270E94A30D64
:101B20000C941D0F0E940F0F38F00E94160F20F02A
:101B300039F49F3F19F426F40C940C0F0EF4E09541
:101B4000E7FB0C94060FE92F0E942E0F58F3BA17EB
:101B5000620773078407950720F079F4A6F50C94C3
:101B6000500F0EF4E0950B2EBA2FA02D0B01B901EA
:101B700090010C01CA01A0011124FF27591B99F003
:101B8000593F50F4503E68F11A16F040A22F232F0F
:101B9000342F4427585FF3CF469537952795A7955F
:101BA000F0405395C9F77EF41F16BA0B620B730B06
:101BB000840BBAF09150A1F0FF0FBB1F661F771F77
:101BC000881FC2F70EC0BA0F621F731F841F48F42C
:101BD000879577956795B795F7959E3F08F0B0CFB5
:101BE0009395880F08F09927EE0F9795879508959C
:101BF0000E94E20E08F481E008950E94110E0C94F8
:101C00001D0F0E94160F58F00E940F0F40F029F48C
:101C10005F3F29F00C94060F51110C94510F0C9456
:101C20000C0F0E942E0F68F39923B1F3552391F303
:101C3000951B550BBB27AA2762177307840738F03B
:101C40009F5F5F4F220F331F441FAA1FA9F335D098
:101C50000E2E3AF0E0E832D091505040E695001C4C
:101C6000CAF72BD0FE2F29D0660F771F881FBB1F06
:101C7000261737074807AB07B0E809F0BB0B802DE4
:101C8000BF01FF2793585F4F3AF09E3F510578F010
:101C90000C94060F0C94510F5F3FE4F3983ED4F37D
:101CA000869577956795B795F7959F5FC9F7880FE4
:101CB000911D9695879597F90895E1E0660F771F36
:101CC000881FBB1F621773078407BA0720F0621BC7
:101CD000730B840BBA0BEE1F88F7E09508950E94F2
:101CE000760E6894B1110C94510F08950E94360F2E
:101CF00088F09F5798F0B92F9927B751B0F0E1F0CD
:101D0000660F771F881F991F1AF0BA95C9F714C07C
:101D1000B13091F00E94500FB1E008950C94500F33
:101D2000672F782F8827B85F39F0B93FCCF38695B5
:101D300077956795B395D9F73EF490958095709512
:101D400061957F4F8F4F9F4F0895E89409C097FB8F
:101D50003EF490958095709561957F4F8F4F9F4F82
:101D60009923A9F0F92F96E9BB279395F6958795C6
:101D700077956795B795F111F8CFFAF4BB0F11F489
:101D800060FF1BC06F5F7F4F8F4F9F4F16C0882330
:101D900011F096E911C0772321F09EE8872F762F66
:101DA00005C0662371F096E8862F70E060E02AF0A7
:101DB0009A95660F771F881FDAF7880F9695879593
:101DC00097F90895990F0008550FAA0BE0E8FEEF68
:101DD00016161706E807F907C0F012161306E407EF
:101DE000F50798F0621B730B840B950B39F40A26E8
:101DF00061F0232B242B252B21F408950A2609F4C6
:101E0000A140A6958FEF811D811D089597F99F67C9
:101E100080E870E060E008959FEF80EC0895002472
:101E20000A941616170618060906089500240A943F
:101E300012161306140605060895092E0394000CC5
:101E400011F4882352F0BB0F40F4BF2B11F460FF54
:101E500004C06F5F7F4F8F4F9F4F089557FD90587D
:101E6000440F551F59F05F3F71F04795880F97FB5E
:101E7000991F61F09F3F79F0879508951216130618
:101E80001406551FF2CF4695F1DF08C01616170647
:101E90001806991FF1CF869571056105089408957C
:101EA000E894BB2766277727CB0197F908950E940E
:101EB000E20E08F48FEF08950E946F0F0C941D0F2F
:101EC0000E940F0F38F00E94160F20F0952311F09A
:101ED0000C94060F0C940C0F11240C94510F0E94BB
:101EE0002E0F70F3959FC1F3950F50E0551F629F21
:101EF000F001729FBB27F00DB11D639FAA27F00D63
:101F0000B11DAA1F649F6627B00DA11D661F829F89
:101F10002227B00DA11D621F739FB00DA11D621F6E
:101F2000839FA00D611D221F749F3327A00D611D8B
:101F3000231F849F600D211D822F762F6A2F11246D
:101F40009F5750409AF0F1F088234AF0EE0FFF1FA0
:101F5000BB1F661F771F881F91505040A9F79E3FF7
:101F6000510580F00C94060F0C94510F5F3FE4F381
:101F7000983ED4F3869577956795B795F795E7954D
:101F80009F5FC1F7FE2B880F911D9695879597F956
:101F900008950E94E20E880B990B0895A1E21A2E73
:101FA000AA1BBB1BFD010DC0AA1FBB1FEE1FFF1FFD
:101FB000A217B307E407F50720F0A21BB30BE40B4D
:101FC000F50B661F771F881F991F1A9469F7609594
:101FD0007095809590959B01AC01BD01CF0108954E
:101FE000052E97FB1EF400940E94071057FD07D0A2
:101FF0000E94CE0F07FC03D04EF40C9407105095AE
:102000004095309521953F4F4F4F5F4F08959095E4
:102010008095709561957F4F8F4F9F4F0895EE0F7C
:10202000FF1F0590F491E02D099481E090E0F89471
:082030000C941A10F894FFCF84
:10203800FF000000000C018800D500B300C7005362
:1020480001000000005902290221020D02FE01FDD3
:1020580001466F7277617264002020200050494465
:10206800000D0A006E616E00696E66006F7666008C
:00000001FF
